:020000040800F2
:100000000000082049110008210E0008250E0008F4
:10001000290E00082D0E0008310E00080000000017
:1000200000000000000000000000000051D70008A0
:10003000350E000800000000F1D7000855D8000870
:1000400099110008991100089911000899110008E8
:1000500099110008991100089911000899110008D8
:1000600099110008991100089911000899110008C8
:1000700099110008991100089911000899110008B8
:1000800099110008991100089911000899110008A8
:100090009911000899110008991100089911000898
:1000A00099110008390E00089911000899110008EB
:1000B0009911000899110008991100089911000878
:1000C0009911000899110008991100089911000868
:1000D00099110008450E00089911000899110008AF
:1000E0009911000899110008991100089911000848
:1000F0009911000899110008991100089911000838
:100100009911000899110008991100089911000827
:100110009911000899110008991100089911000817
:100120009911000899110008991100089911000807
:1001300099110008991100089911000899110008F7
:10014000991100089911000899110008510E000832
:1001500099110008991100089911000899110008D7
:1001600099110008991100089911000899110008C7
:100170009911000899110008991100080000000069
:1001800099110008991100089911000899110008A7
:100190009911000899110008991100089911000897
:1001A0009911000899110008991100089911000887
:1001B0009911000899110008991100089911000877
:1001C0009911000899110008000000009911000819
:1001D0009911000899110008991100089911000857
:1001E0009911000899110008991100089911000847
:0801F0009911000899110008A3
:1002000010B5054C237833B9044B13B10448AFF350
:1002100000800123237010BDA00500200000000015
:10022000F418010808B5034B1BB103490348AFF3A9
:10023000008008BD00000000A4050020F41801089B
:1002400010F8012B11F8013B012A28BF9A42F7D080
:10025000D01A7047034613F8012B002AFBD1181A55
:10026000013870470000000000000000000000009E
:1002700001F0FF01102A2BDB10F0070F08D010F857
:10028000013B013A8B422DD010F0070F42B3F6D15B
:10029000F0B441EA012141EA014122F007047FF074
:1002A00000070023F0E80256083C85EA010586EACB
:1002B000010685FA47F5A3FA87F586FA47F6A5FA07
:1002C00087F68EB9EED1F0BC01F0FF0102F0070213
:1002D00032B110F8013B013A83EA010313B1F8D1BE
:1002E0000020704701387047002D06BF354603389F
:1002F000073815F0010F07D1013015F4807F02BFD8
:10030000013015F4C03F0130F0BC0138704700BF28
:1003100053B94AB9002908BF00281CBF4FF0FF316C
:100320004FF0FF3000F06EB9ADF1080C6DE904CE6E
:1003300000F006F8DDF804E0DDE9022304B07047C0
:100340002DE9F047089D04468C46002B40F0838041
:100350008A42174647D9B2FA82F242B1C2F120006E
:1003600024FA00F09140974040EA010C94404FEA93
:100370001748230CBCFBF8F61FFA87FE08FB16C1D2
:1003800043EA014306FB0EF1994209D9FB1806F135
:10039000FF3080F01981994240F21681023E3B44C1
:1003A0005B1AA4B2B3FBF8F008FB103344EA034431
:1003B00000FB0EFEA64509D93C1900F1FF3380F081
:1003C0000581A64540F2028102383C4440EA0640DD
:1003D000A4EB0E0400261DB1D4400023C5E9004360
:1003E0003146BDE8F08702B9FFDEB2FA82F2002A98
:1003F00050D1CB1B4FEA174E1FFA87F80126B3FBEB
:10040000FEFC210C0EFB1C3341EA034108FB0CF3FC
:100410008B4207D979180CF1FF3002D28B4200F2DF
:10042000E9808446C91AA3B2B1FBFEF00EFB10119D
:1004300043EA014408FB00F8A04507D93C1900F144
:10044000FF3302D2A04500F2D9801846A4EB08047D
:1004500040EA0C40BFE78B4209D9002D00F0B18083
:100460000026C5E9000130463146BDE8F087B3FA01
:1004700083F6002E4AD18B4202D3824200F2B8802A
:10048000841A61EB030101208C46002DA8D0C5E938
:10049000004CA5E7C2F1200320FA03F6974001FAC9
:1004A00002F04FEA174ED9403043030CB1FBFEF681
:1004B0001FFA87F80EFB161143EA014306FB08F109
:1004C000994204FA02F409D9FB1806F1FF3C80F0C6
:1004D0008D80994240F28A80023E3B445B1A81B291
:1004E000B3FBFEF00EFB103341EA034100FB08F3BF
:1004F0008B4207D9791800F1FF3C73D28B4271D936
:1005000002383944CB1A40EA064678E7C6F1200C97
:1005100003FA06F422FA0CF31C4320FA0CF701FA52
:1005200006F34FEA144E21FA0CF11F433B0CB1FBCA
:10053000FEF91FFA84F80EFB191143EA014109FB89
:1005400008FA8A4502FA06F200FA06F308D9611899
:1005500009F1FF3048D28A4546D9A9F10209214460
:10056000A1EB0A01BFB2B1FBFEF00EFB101147EA8E
:10057000014700FB08F8B84507D9E71900F1FF313A
:100580002ED2B8452CD90238274440EA0940A7EBBF
:100590000807A0FB02894F45C64649461AD317D023
:1005A0005DB1B3EB0E0267EB010707FA0CFCF240FA
:1005B0004CEA0202F740C5E9002700263146BDE8B3
:1005C000F0872E4628460BE70646E9E61846FDE684
:1005D0004345E5D2B8EB020E69EB04010138DFE7D1
:1005E0000846D2E760468DE78146B9E7664675E77B
:1005F00030464AE7ACF1020C394413E702383C4478
:1006000024E700BF704700BF18480023184A194963
:1006100010B54FF4803484B00260012244608162DE
:10062000836000930361836180F82030C362C360FC
:1006300080F830300393C2614261CDE9013300F0AC
:10064000DDFD60B9052201230024694607480294B4
:10065000CDE9002300F07CFF20B904B010BD00F00C
:100660007FFBEFE700F07CFB04B010BD7845002075
:10067000002001400100000F164A0023016870B5F8
:10068000914288B0CDE90233CDE90433069301D01D
:1006900008B070BD02F58C3202A90F482024566CB8
:1006A000032546F480765664566C06F480760096F0
:1006B000009E166B46F001061663126B049302F05F
:1006C00001020192019BCDE9024501F06BF908B0EE
:1006D00070BD00BF002001400000024030B50E4850
:1006E00083B00E4A00230260CDE9003301F0AAF87E
:1006F00058B900240025694600220748CDE9004585
:1007000001F0CEF820B903B030BD00F029FBF0E7CE
:1007100000F026FB03B030BDC0450020007400404F
:10072000164A0023016870B5914288B0CDE90233C2
:10073000CDE90433069301D008B070BD02F5E23272
:1007400002A90F481024166C032546F000561664C3
:10075000166C06F000560096009E166B46F00106D9
:100760001663126B049302F001020192019BCDE922
:10077000024501F017F908B070BD00BF00740040D9
:10078000000002402F4B01212F4A30482DE9F04351
:10079000116089B09A6B002403250C2642F00102F7
:1007A0004FF63F084FF0020902A99A639B6B284F4E
:1007B00003F0010306960193019BCDE90289CDE97F
:1007C000044501F0EFF80D22022302A938460696EF
:1007D000CDE90223CDE9044501F0E4F848F23F12E7
:1007E000022302A91B480696CDE90223CDE9044560
:1007F00001F0D8F84FF68072022302A91648069637
:10080000CDE90223CDE9044501F0CCF84FF633726F
:10081000022302A9114806960926CDE90223CDE953
:10082000044501F0BFF88022022302A9384606964B
:10083000CDE90445CDE9022301F0B4F809B0BDE8E3
:10084000F08300BF00380240BC05002000140240C5
:10085000000802400018024000100240000C024054
:1008600040484FF02042404B4FF480412DE9F04387
:100870000F2699B00F2710254FF4805402604FF4D3
:100880000012436045610023112544624FF0550872
:1008900010244FF00109C162C263694608AA83604F
:1008A0001093036283628363036406930E93CDE91E
:1008B0000067CDE908670F260127C0E90333C0E9C7
:1008C0000633C0E90C33CDE91133CDE91333CDE95B
:1008D0001533CDE90289CDE90445CDE90C45CDE9D3
:1008E0000A6702F069FD002836D120480123102252
:1008F0001F4D0824836002614FF4C0734FF480528F
:100900004FF4005605604025C4604FF400648361D5
:100910000023426202220627456104620825022460
:10092000866243600626C36102231692042210A940
:10093000CDE91045CDE91267CDE9142302F0EEFCB4
:1009400068B90A4808F0BCFA40F2AB21074802F047
:100950001FFD19B0BDE8F08300F002FAC5E700F012
:10096000FFF9EEE7D4450020040100A02046002056
:10097000400100A0024B1B6803B17047FFF702BFA4
:10098000BC050020024B1B6803B17047FFF7FABE9D
:10099000BC05002008B5064C0DF0AEF9204601213B
:1009A00001F02AF94FF4FA700CF04AF9F6E700BFAB
:1009B0000004024030B48023034D044C05600C60F9
:1009C000136030BC704700BFC0070020C005002086
:1009D000F0B5214C9DB0214F26466D460FCE0FC578
:1009E00096E8070004F11C0685E807000021684628
:1009F0000CF0FAF807AD84460FCE0FC596E8070055
:100A000004F13806C7F800C05434154F85E80700D4
:100A1000002107A80CF0E8F80EAD84460FCE0FC5F4
:100A200096E8070085E8070000210EA8C7F800C077
:100A300015AD0CF0D9F807460A4E0FCC0FC594E857
:100A4000070085E80700002115A837600CF0CCF8F6
:100A5000054B18601DB0F0BD101901085446002068
:100A600060460020584600205C4600202DE9F043F7
:100A7000524B8FB000240122DFF8508130210994BD
:100A80009146089401260C9402274D4DCDE90A4465
:100A9000186B40F004001863186B00F0040000901D
:100AA0000098186B40F020001863186B00F02000CD
:100AB00001900198186B40F080001863186B00F0EB
:100AC000800002900298186B10431863186B104056
:100AD00003900398186B40F002001863186B00F045
:100AE000020004900498186B40F040001863186BE3
:100AF00000F0400005900598186B40F01000186356
:100B0000186B00F0100006900698186B40F0080073
:100B1000186340461B6B03F008030793079B01F023
:100B200067F822462846032101F062F828464A4623
:100B3000202101F05DF84FF40052002308A921485C
:100B4000CDF82890CDE9082300F02CFF01220023E6
:100B500008A91D48CDE9082302230A9300F022FFCB
:100B60000C22002308A94046CDF82890CDE908239F
:100B700000F018FF30221123404608A9CDE90823D0
:100B8000CDE90A6700F00EFF0322012308A92846D9
:100B9000CDE90A67CDE90823202600F003FF0127ED
:100BA0000022002308A92846CDE90867CDE90A23D9
:100BB00000F0F8FE0FB0BDE8F08300BF003802403F
:100BC000000402400008024000000240001C0240F5
:100BD0002DE9F043BBB034220021012408A84FF4D2
:100BE00080350EF069F90021902216A806914FF089
:100BF00002084FF480090F269027CDE90211CDE9B4
:100C000004110EF059F901F071FD234B234A08A895
:100C1000196C41F0805119641B6C03F080530093F0
:100C2000009B136823F4404343F48043136013682C
:100C3000022203F440430193019B0523CDE90845BB
:100C4000CDE90E89CDE91067CDE9122301F056FDFB
:100C500008B172B6FEE74FF480514FF4A053002262
:100C60000F240225069102A80321CDE90423CDE932
:100C7000024501F045FF034608B172B6FEE7084A97
:100C800016A827933593169202F08AF808B172B627
:100C9000FEE73BB0BDE8F083003802400070004042
:100CA0004000200008B500F079FAFFF791FFFFF748
:100CB000DDFE00F095F900F03BF9FFF7D1FDFFF7FD
:100CC000A3FCFFF70BFD05F0FDFA194B6C205B68E8
:100CD0009847184B1B68984717480EF07FFEAA21CB
:100CE0001E2008F03FF904F05BFBA0B108F05CF8AF
:100CF000C8B104F08FFA90B1104B4FF4784240F233
:100D0000DC501A600CF08EFF0AF0FAFEFFF760FE6E
:100D10000BF064FFFEE70A480EF060FEE6E70948C4
:100D20000EF05CFEE8E708480EF058FEE1E700BF71
:100D3000F40100201C000020A81901081400002064
:100D4000B4190108DC190108C8190108034B02682D
:100D50009A4200D0704700F02DBA00BF0000014059
:100D600072B6FEE70E4B00220F216FF0010010B4A7
:100D70001C6C83B044F080541C641C6C04F08054E0
:100D80000094009C5C6C44F480445C645B6C03F4F1
:100D900080430193019B03B05DF8044B00F0AEBCAF
:100DA0000038024030B5014689B00022192000F019
:100DB000A5FC192000F0DCFC154B01A903A85A6C16
:100DC000144D42F00102144C5A645B6C03F00103B1
:100DD0000293029B01F0C2FF01F0B0FF40F2E73244
:100DE00043000E49E2600022A5FB03032046216078
:100DF0009B0C2261A260013B636002F009FB10B111
:100E0000012009B030BD204602F0AEFB09B030BD74
:100E10000038024083DE1B4364460020000001408E
:100E2000FEE700BFFEE700BFFEE700BFFEE700BF32
:100E3000FEE700BF704700BF014802F09FBC00BF43
:100E400064460020014802F0B7BE00BFFC46002007
:100E5000014800F087BF00BF305D002001207047CF
:100E600008B50DF0E1FF162203464FF0FF301A607F
:100E700008BD00BF08B50DF0D7FF16230360FEE7DD
:100E800070B5161E07DD0C468D19AFF3008004F80F
:100E9000010BA542F9D1304670BD00BF70B5161EDA
:100EA00007DD0C468D1914F8010B00F08FF8AC42E9
:100EB000F9D1304670BD00BF4FF0FF30704700BF22
:100EC0004FF4005300204B60704700BF0120704773
:100ED0000020704710B50D4C03460D490D4822689F
:100EE000091A2AB113448B4208D81046236010BD5A
:100EF00009480246206013448B42F6D90DF094FF56
:100F00000C234FF0FF320360104610BD1408002080
:100F1000000008200010000048610020034AD2F8B9
:100F2000883043F47003C2F88830704700ED00E069
:100F300010B5002388B018483C21184C4FF6FF72BA
:100F400004930193036183610793C0E90041C0E901
:100F50000232CDE90533CDE9023302F059FA88B9FE
:100F60004FF4805304A90C48049302F059FB80B954
:100F7000002301A908480193039302F0B7FC20B9AC
:100F800008B010BDFFF7ECFEEAE7FFF7E9FE08B096
:100F900010BDFFF7E5FEEBE7B0460020000400407F
:100FA000094B02689A4200D0704703F50D3382B0B6
:100FB0001A6C42F002021A641B6C03F002030193E4
:100FC000019B02B0704700BF00040040034AD36990
:100FD0005B06FCD5C3B29362704700BF00100140AE
:100FE00010B50E4800234FF4E1310D4C0C22036183
:100FF000C0E900414261C0E90233C0E90633C0E9FB
:10100000083302F0C5FF30B9012206490348BDE8A4
:10101000104002F0CDBCFFF7A3FEF5E7FC46002030
:101020000010014080470020244B0268F0B59A422E
:1010300089B04FF00004CDE90244CDE904440694A0
:1010400001D009B0F0BD03F594334FF400700221D4
:1010500007255A6C0026032742F010025A645A6C86
:1010600002F010020092009A1A6B42F001021A6319
:101070001B6B069503F00103CDE90201019302A960
:101080000F48019BCDE9046700F08CFC4FF48066AB
:1010900003230122022702A909480695CDE904236A
:1010A000CDE9026700F07EFC22460521252000F0F4
:1010B00025FB252000F05CFB09B0F0BD00100140CD
:1010C000000002401A4B02689A4200D07047194B48
:1010D000B3F900101A88002907DB5004164909D516
:1010E00009780A291CD000221A80012212491348CB
:1010F00002F05EBC08780D2816D0511CC2F30D0218
:1011000089B210B4C7290E4C1980A05401D900220D
:101110001A800122084909485DF8044B02F048BCD6
:10112000084911431980E0E742F480421A80DCE765
:10113000001001401808002080470020FC460020D5
:10114000844700200080FFFFDFF834D00D480E49AF
:101150000E4A002302E0D458C4500433C4188C4211
:10116000F9D30B4A0B4C002301E013600432A24276
:10117000FBD3FFF7D3FE0DF05DFEFFF793FD704745
:101180000000082000000020A0050020646F010876
:10119000A005002044610020FEE7000008B5032000
:1011A00000F098FA0020FFF7FDFDFFF7DBFD0020BF
:1011B00008BD00BF034A044B11681B780B44136041
:1011C000704700BF4C48002004000020014B186805
:1011D000704700BF4C48002038B50446FFF7F6FFC3
:1011E0000546631C02D0044B1B781C44FFF7EEFF3E
:1011F000431BA342FAD338BD04000020002800F0AE
:10120000A180F8B5056C04463DB1236CDB060CD516
:101210000023012084F83C30F8BDFFF72DFA656407
:10122000236C84F83C50DB06F2D4236C494A4A49CB
:101230001A402368494D42F0020222644A6822F4AF
:1012400040324A604A68606802434A605A682169CD
:1012500022F48072D4F808C0E7685A605868A66A19
:1012600040EA0120AE425860586820F04070586053
:10127000596841EA0C015960996821F4006199604C
:101280009A6842EA07029A6053D09968E06A21F0AE
:10129000706199609A6816439E60996821F0405188
:1012A00099609A6802439A609968A06921F00201E6
:1012B00099609A6842EA40029A6094F82020002AD5
:1012C00042D05868626A40F40060511E58605A6803
:1012D00022F460425A605A6842EA41325A60D86A3F
:1012E0000025E16920F4700066694A1ED86228462C
:1012F000D96A41EA0251D962996821F40071996072
:10130000996894F8302041EA42219960996821F463
:10131000806199609A6842EA86229A606564236CCB
:1013200023F0030343F001032364002384F83C30DB
:10133000F8BD9A6822F070629A609A6822F0405272
:101340009A60B1E7012070475A6822F400625A603F
:10135000C5E700BFFDEEFFFF002301400100000FC5
:1013600010B4002383B0019390F83C30012B77D068
:1013700001230168024680F83C308B68DC0714D4F6
:101380003E4B3F4C1B688868A4FB034340F00100C0
:101390009B0C886003EB43030193019B2BB1019BE2
:1013A000013B0193019B002BF9D1886810F00100EB
:1013B0002ED0106C334B034043F4807313644B689E
:1013C000580505D5136C23F4405343F4805313643C
:1013D000136C13F4805335D0536C23F0060353641D
:1013E0006FF022000024284B82F83C4008605868C7
:1013F00010F01F0018D18B6813F0405310D18A6889
:10140000184642F080428A6003B05DF8044B704792
:10141000136C43F010031364536C43F001035364E3
:1014200003B05DF8044B7047184A91420CD05B68DA
:10143000DB0602D4164A914217D0002003B05DF8B3
:10144000044B70475364CBE78B6813F0405F03D1C4
:101450008B6843F080438B600B4B00205B68DFE7B9
:10146000022003B05DF8044B7047906810F04050C4
:10147000E3D1936843F080439360D1E700000020FC
:1014800083DE1B43FEF8FFFF0023014000200140E4
:101490000022014003689A6870B50D465105044664
:1014A00002D59B68DA0546D4FFF790FE226806460F
:1014B0006B1C25D113689807FCD56FF012031360DD
:1014C000236C43F400732364936813F0405F15D1D9
:1014D000A3699BB9D36A13F4700F02D093685B05BC
:1014E0000CD4236C23F480732364206C10F480509C
:1014F00004D1236C43F00103236470BD002070BD50
:1015000013689907D9D45DB9136813F00203CFD1DA
:10151000226C032084F83C3042F00402226470BD47
:10152000FFF754FE801B2268A842C1D9136813F04C
:101530000203BDD1ECE7036C0022012043F020033D
:1015400084F83C20236470BD0368D86C704700BFEA
:10155000F0B4002382B0019390F83C30012B00F0EE
:10156000AD8001230727046880F83C300D68092D01
:10157000AEB230D9B5F1004F2DD006EB4603E2688C
:10158000DFF848C11E3B654507FA03F722EA070268
:10159000E26066D08A68E76802FA03F33B43E360DF
:1015A0004B68062B28D803EB83031F21626B053B96
:1015B000994006FA03F322EA01026263626B134365
:1015C0006363404B9C422CD0002380F83C3018468B
:1015D00002B0F0BC704706EB460C22698B6807FA34
:1015E0000CF703FA0CF322EA070222612269134383
:1015F00023614B68062BD6D90C2B1DD803EB830334
:101600001F27226BA3F1230107FA01F306FA01F168
:1016100022EA03032363236B19432A4B9C42216371
:10162000D2D1B5F1004F16D0122D21D1264A5368E0
:1016300043F480035360C7E703EB83021F27E36A89
:10164000413A974006FA02F123EA0703E362E26AAD
:101650001143E162B5E71C4A536823F44003536029
:10166000B2E7E36812268A6843EA0263E36097E719
:10167000164B9D4201D0112DA6D1134A1349536830
:101680008D4243F4000353609ED102F14672104B29
:1016900002F52E321B6802F28332A2FB03239B0C5D
:1016A00003EB83035B000193019B002B8CD0019B18
:1016B000013B0193019B002BF9D185E7022002B089
:1016C000F0BC7047002001400023014012000010D0
:1016D0000000002007490002074BCA6800F4E060E0
:1016E00010B44FF6FF0422405DF8044B104303434F
:1016F000CB60704700ED00E00000FA05194BDB6895
:10170000C3F3022330B4C3F107051C1D042D28BF09
:101710000425062C19D9033B4FF0FF349C4022EAE4
:1017200004024FF0FF34002804FA05F421EA040112
:1017300001FA03F141EA02010ADB09010A4BC9B2CD
:10174000034483F8001330BC704700221346E8E7D7
:1017500000F00F000901054BC9B20344197630BCF3
:10176000704700BF00ED00E000E100E0FCEC00E0AD
:10177000002807DB00F01F0101234009024A8B40CB
:1017800042F82030704700BF00E100E0BFF34F8F08
:101790000549064BCA6802F4E0621343CB60BFF30D
:1017A0004F8F00BFFDE700BF00ED00E00400FA0529
:1017B000BFF35F8F044A00200449536A23F4803347
:1017C00053624860704700BF00ED00E090ED00E01C
:1017D000064A40F00100064B5860536A43F48033D8
:1017E0005362BFF34F8FBFF36F8F704700ED00E080
:1017F00090ED00E0124A437893600178E9B14368C4
:1018000070B4D360C37A047B1B06857A867B43EA77
:101810000473447B0B43017A43EAC543C57B43EA27
:101820008443447A43EA464343EA054343EA0423B4
:1018300043EA410370BC13617047D1601161704786
:1018400090ED00E088B110B50379044603F0FF0283
:101850003BB100230221012221711846236122712C
:1018600010BD4271FEF75CFFF3E70120704700BF37
:1018700010B4006883B000240194019051B901991B
:1018800008310A440192019A0020136003B05DF808
:10189000044B7047019914310A440192F3E700BFE9
:1018A0000346407901281FD0022002F01002F0B454
:1018B000187140F6FE760868C0251C689640496895
:1018C000954001270143206801FA02F220EA06014F
:1018D00000260A4330462260226822EA050222607E
:1018E0001F715E71F0BC70470220704770B50446EE
:1018F000866DFFF76BFC94F83530022B06D0802202
:1019000000230120626584F8343070BD23680546E9
:10191000216C1A6822F016021A605A6922F08002BD
:101920005A6139B31A6822F008021A601A6822F064
:1019300001021A6005E0FFF749FC431B052B0FD895
:1019400023681B6813F00103F5D1E16D3F221846AF
:101950008A400121B26084F8343084F8351070BDBB
:101960000323202100226165184684F8342084F87E
:10197000353070BDA26C002AD4D1D7E790F835205D
:101980000346022A03D0802201205A65704702686C
:101990000521002083F83510136823F0010313603C
:1019A000704700BF2DE9F04F002385B0DFF82CB25F
:1019B0000D68DFF82CE202E00133102B57D0012232
:1019C0009A4002EA050AAA43F6D14A685F0022F06B
:1019D000100C0CF1FF34012C4FF0030400F2C08016
:1019E000C2F30016D0F80880BC409E4028EA0408E4
:1019F000E4430196CE6806FA07F9019E49EA080811
:101A0000C0F80880D0F8048028EA0A0846EA0806E8
:101A10004660C668BCF1020F06EA04088E6806FA42
:101A200007F646EA0806C66024D1DE0803F0070C74
:101A300002F003024FF00F0800EB860601334FEA75
:101A40008C0C02FA07F7D6F82090102B0A6908FAD6
:101A50000CF802FA0CFC29EA08024CEA0202326293
:101A6000026804EA020444EA07040460A7D105B04E
:101A7000BDE8F08FD0F800C002F003060CEA040CB9
:101A800006FA07F7D40047EA0C07076094D5DBF89D
:101A9000447023F0030C03F003040F2647F480473F
:101AA0000CF1804CA400CBF844700CF59C3CDBF8A6
:101AB000447006FA04F807F4804703973E4F039EEC
:101AC000B842DCF8086026EA080620D007F58067EF
:101AD000B84248D0394FB8424AD0394FB8424CD0BA
:101AE000384FB8424ED0384FB84255D0374FB84231
:101AF00057D0374FB8424AD0364FB84256D0364FFB
:101B0000B8420CBF09270A2707FA04F42643CCF889
:101B10000860D703DEF800406FEA0A064CBF4AEAC5
:101B2000040434409703CEF80040DEF8044054BF6C
:101B300034404AEA0404D702CEF80440DEF80840F4
:101B400054BF34404AEA04049202CEF80840DEF85A
:101B50000C4054BF34404AEA0404CEF80C402BE752
:101B6000BC40E44355E7012707FA04F42643CEE7D7
:101B7000022707FA04F42643C9E7032707FA04F407
:101B80002643C4E7042707FA04F42643BFE70727E0
:101B900007FA04F42643BAE7052707FA04F42643B4
:101BA000B5E7062707FA04F42643B0E7082707FA43
:101BB00004F42643ABE700BF0000024000080240E7
:101BC000000C0240001002400014024000180240C5
:101BD000001C024000200240002402400038024065
:101BE000003C01400369194214BF012000207047E6
:101BF00002B9090481617047436901EA030221EADD
:101C0000030141EA02418161704700BFF0B58BB02A
:101C1000002800F0888090F8BD330546046803F082
:101C2000FF02002B79D0204603232E462F1D85F876
:101C3000BD33E36B6C4613F4807308BF2B6102F075
:101C40007FFD56F810EBB446BCE80F000FC4BCE8AB
:101C50000F000FC49CE8030084E80300704697E877
:101C60000E0002F081FC044630B10124022320461C
:101C700085F8BD330BB0F0BD0146286802F068FD61
:101C8000686858B322464FF0010E2146C2EBC203EA
:101C900002F1010C05EB830383F83C20A3F84220FA
:101CA0005FFA8CF283F83DE0824283F83F101965B9
:101CB000C3E91111EAD30022C4EBC403611C05EB94
:101CC000830383F8FC41CCB283F8FD21844283F87E
:101CD000FF21C3F81022C3E98122EDD36C460FCE59
:101CE0000FC40FCE0FC496E8030084E8030097E802
:101CF0000E00286802F044FD04460028B5D10122F8
:101D00006B6A85F83800934285F8BD230FD02868A8
:101D100003F04AF920460BB0F0BD80F8BC230CF06C
:101D20003FF9286880E7012420460BB0F0BD284623
:101D300000F0C6FCEBE700BF90F8BC33012B0ED0DF
:101D4000012310B50446006884F8BC3302F0F0FCAF
:101D5000206803F019F9002084F8BC0310BD0220AC
:101D6000704700BF2DE9F04F066887B00446304643
:101D700003F05AF910B107B0BDE8F08F8346206830
:101D800003F022F90028F6D0206803F01DF910F0C6
:101D9000020F206803D0436903F00203436103F09C
:101DA00013F910F0100F206812D0836923F010038C
:101DB0008361356AC5F3434305F00F07022B00F03A
:101DC0006C82062B00F0CB81836943F010038361A2
:101DD00003F0FAF810F4002F206840F0DF8003F0E1
:101DE000F3F8420378D4D4F80080404603F0ECF8CE
:101DF00000285DDB206803F0E7F800054DD420687B
:101E000003F0E2F8020114D52268536903F000637D
:101E1000536194F8F433002B40F08B81012120466C
:101E200084F8F413536DC3F38303C4F8F8330CF050
:101E300023FA206803F0C8F8C30400F12981206860
:101E400003F0C2F810F4005F206840F00A8103F04C
:101E5000BBF8070700F1FC80206803F0B5F8C60264
:101E600000F1EC80206803F0AFF8850200F1DC801F
:101E7000206803F0A9F8400000F1CD80206803F04D
:101E8000A3F841077FF577AF23685D686A0700F123
:101E900025825A682A435A606DE7D6F80838D90770
:101EA00000F118822068436903F400634361A7E7E7
:101EB000D6F8043823F00103C6F8043894F8F43354
:101EC000012B00F0458120460CF004F9206843699D
:101ED00003F0004343618EE7206803F081F8D4F8F3
:101EE00000808146002880D006F5106325464FF01B
:101EF000000ACDF810B0CDE9023607E05FEA5909D3
:101F00000AF1010A05F11C0500F03E8119F0010FEC
:101F1000F4D05FFA8AF74046394603F073F8C307F6
:101F2000064619D54FF0010C039B0AF00F01029AE7
:101F3000D3F834080CFA01F102EB4A1220EA01004E
:101F400021696145C3F83408C2F808C000F0CB81AC
:101F5000394620460CF082F8300704D5029B08224F
:101F600003EB4A139A60F10604D5029B102203EB9F
:101F70004A139A60720604D5029B402203EB4A136F
:101F80009A60B30704D5029B022203EB4A139A60BE
:101F9000360600F1FC80D4F80080AFE703F018F8B3
:101FA00005462068002D3FF41AAF06F5306304F5AE
:101FB0000179002702969A4606E06D0807F10107AD
:101FC00009F11C0900F0DE80EE07F6D5FEB23146BD
:101FD00003F00EF88046206818F0010F40F03E81B3
:101FE00018F0080F40F0208118F0100F03D00AEB12
:101FF000471310229A6018F0200F03D00AEB471302
:1020000020229A6018F4005FD7D00AEB47134FF4F0
:1020100000529A60D1E720460CF068F820684369C6
:1020200003F0804343612AE7204600210CF056F874
:102030002068436903F4001343611AE72046002136
:102040000CF050F82068436903F4801343610AE7F9
:1020500020460CF00DF82068436903F00803436143
:10206000FBE602F0E5FF206802F082FC2568E060F4
:1020700000F04EFE227B0146284602F0DDFA2046A3
:102080000BF0FAFF2068436903F400534361DEE676
:10209000D6F804381021206806F5006523F0010306
:1020A0006B6002F053FC606810B306F510634FF6E6
:1020B0007F3199600BF1010B1A682033834522F4BC
:1020C000001243F8202C53F8202C42F0006243F811
:1020D000202CC3F8E811D3F8E02122F40012C3F851
:1020E000E021D3F8E02142F00062C3F8E021E0D122
:1020F000EB69226B43F00113EB61F2B96A6942F2BA
:102100002B0313436B612B6943F00B032B61D6F850
:10211000003804F57172217C23F4FE632068C6F850
:10212000003802F09BFF2068436903F48053436149
:1021300086E620460BF0B6FF7BE6D5F8843043F008
:102140000B03C5F884306B6C43F00B036B64DEE764
:102150000021204684F8F4130CF08EF8B6E6C7EBA5
:10216000C707082204F57171304602F089FEC5F3F5
:102170000A1304EB87022068D2F814120B44C2F849
:10218000143221E6029E2AE6DDE9036B2DE6D5E94D
:102190001413D4F800808B423FF6B0AECA1A686CB4
:1021A00008F5106BCDF8148082420BEB4A1B28BF58
:1021B0000246DBF81800033280B2B0EB920F1BD25C
:1021C00022E0F9B194F810C0D5E91131CDF800C082
:1021D0009E4228BF1E46B3B202F03CFEDBF8182038
:1021E000A96CF01C6B6D92B231443344B2EB900F8A
:1021F000A9646B65296D05D39942A1EB03063A46A4
:102200004046DED8D4F8008099423FF677AE059B71
:102210000AF00F010120D3F8342800FA01F122EA74
:102220000102C3F8342869E60AEB4712082100EBE3
:1022300047139160026C03F530635E4899688242EF
:1022400063D9090402D54FF400429A6020460BF08E
:10225000F5FE216901297BD02068C5E6D4F810C0BD
:1022600000F5306201230AEB471102EB4712BCF183
:10227000010F8B60036CD2F808E04BD04E498B42C3
:1022800057D027B9D4F81022002A00F08C802046BD
:1022900031460BF0D9FE2068A2E647F6F0731D42E6
:1022A0003FF492ADC7EBC707C5F30A12304604EB03
:1022B00087071546D7F8081202F0E2FDD7F8082282
:1022C000D7F814322A4420681D44C7F80822C7F8FA
:1022D000145279E520460BF0E5FEE3E520460BF0CD
:1022E00009FF2368D5E5D5E911231344AB64BAF19E
:1022F000000F7FF42DAE236D002B7FF429AE04F583
:102300007172206802F0AAFE22E620460BF096FECB
:10231000206869E61EF0080F14D026498B427FF62C
:102320005FAE1EF4004F3FF45BAE4FF4004393608A
:1023300056E61EF4004FF8D11EF0200FA7D0202142
:102340009160A4E71EF0200F08D02023936047E699
:1023500004F57172206802F081FE7DE71EF0280FFF
:102360007FF43EAE13498B4202D91EF4004FDCD1FC
:102370001269D9F80030D9F80410C2F312021944D6
:102380009A1AC9F80410C9F81020002F7FF47FAF03
:10239000D4F81022002A7FF47AAF04F5717201217B
:1023A00002F05CFE73E704F57172394602F056FEE6
:1023B0006DE700BF0A30544F0A31544F90F8BC23E8
:1023C000012A0DD0012210B5044680F838100068AB
:1023D00084F8BC2302F0C6FD002084F8BC0310BDC5
:1023E00002207047F8B501F00F05090606464FF0C8
:1023F0001C0422D4C5EBC50004FB0564002706EBD2
:10240000800004F5FE7180F8FD7148780D708A60D7
:10241000CB7000B1CD80022B01D100230B7196F857
:10242000BC33012B15D00123306886F8BC3302F091
:10243000ABFA002086F8BC03F8BDC5EBC500012748
:1024400004FB056406EB800004F13C0180F83D705C
:10245000DBE70220F8BD00BF11F0800F01F00F0391
:102460004FF01C0110B5044619D101FB0341C3EB29
:10247000C302002004EB820201F5FE7182F8FD0127
:102480000B7094F8BC33012B18D00123206884F81A
:10249000BC3302F0C1FA002084F8BC0310BD01FB7C
:1024A0000341C3EBC302012004EB82023C3182F8FA
:1024B0003D000B7094F8BC33012BE6D1022010BD17
:1024C00070B501F00F0500261C21C5EBC50401FB0A
:1024D000050100EB840401F5FE71C4F80822C4F87C
:1024E000103284F8FC51C4F8146284F8FD61036969
:1024F0000068012B08BFC4F80C22DAB21DB902F043
:1025000001FC002070BD02F0E9FA002070BD00BFA0
:1025100001F00F01C1EBC10100EB8101D1F8140200
:10252000704700BFF8B501F00F05012600271C21F8
:10253000C5EBC50401FB050100EB84043C31A2643A
:10254000236584F83C50676584F83D600369006842
:10255000B34208BFE264DAB21DB902F0D3FB002037
:10256000F8BD02F0BBFA0020F8BD00BF38B54368E3
:1025700001F00F059D4233D80B0604461CD4C1EB75
:10258000C1031C20002200FB014104EB830301F581
:10259000FE7183F8FD2101230D708B7094F8BC232C
:1025A0009A421BD0206884F8BC3302F07BFCCDB18A
:1025B000002084F8BC0338BD1C21C5EBC5030122F3
:1025C00001FB050100EB83033C3183F83D2001232F
:1025D0000D708B7094F8BC239A42E3D1022038BD71
:1025E000012038BD04F57172217C206802F036FDAF
:1025F000DEE700BF426838B501F00F03934232D8DE
:1026000011F0800F04464FF01C01C3EBC30219D137
:1026100001FB0341002004EB8202002501F5FE715D
:1026200082F8FD010B708D7094F8BC33012B18D02B
:102630000123206884F8BC3302F068FC284684F843
:10264000BC5338BD01FB0341012004EB820200258D
:102650003C3182F83D000B708D7094F8BC33012B37
:10266000E6D1022038BD012038BD00BF30B4056876
:102670006B6A29B943EA02430020AB6230BC704761
:10268000A86A4C1E03EB10400BD0002303F140015D
:10269000013305EB8101DBB24968A34200EB114035
:1026A000F4D3403440EA024005EB8404606000202B
:1026B00030BC7047034600201B685962704700BF5A
:1026C0000346094930B41A680024012583F8F4430D
:1026D00020469469C3F8FC5344F000649461536D40
:1026E000194330BC5165704703000010024A13685B
:1026F00043F480731360704700700040002800F0BE
:10270000C88103682DE9F041DD0782B0044635D564
:10271000AC498A6802F00C02042A00F0E6808A685C
:1027200002F00C02082A00F0DC806368B3F5803FF9
:1027300010D0002B00F00481B3F5A02FA14B1A6834
:1027400000F0978122F480321A601A6822F4802205
:102750001A6004E09B4A136843F480331360FEF769
:1027600035FD984E054605E0FEF730FD401B642818
:1027700000F2E28033689A03F6D523689F0729D5D3
:10278000904A916811F00C0F00F08280916801F07E
:102790000C01082979D0E368002B00F00981894BEE
:1027A0001A681E4642F001021A60FEF70FFD054648
:1027B00005E0FEF70BFD401B022800F2BD803368E8
:1027C0009807F6D53368226923F0F80343EAC20379
:1027D000336023681A071FD45D0735D5794B1A6C0F
:1027E000D00073D50025784B1A68D10540F193804D
:1027F000A368012B00F0F480002B00F0B880052BBB
:10280000704B1A6F00F03D8122F001021A671A6FB7
:1028100022F004021A67E8E06369002B43D0694B99
:102820005A6F1E4642F001025A67FEF7CFFC05467A
:1028300004E0FEF7CBFC401B02287DD8736F9B079A
:10284000F7D523685D07C9D4A069D0B15D4B9A68FC
:1028500002F00C02082A00F0DB801A6802281D46EC
:1028600022F080721A6000F01681FEF7AFFC044679
:1028700004E0FEF7ABFC001B02285DD82B689B012F
:10288000F7D4002002B0BDE8F0815268560282D42D
:102890004C4A1268950732D5E268012A2FD00120F0
:1028A00002B0BDE8F081474B5A6F1E4622F001028C
:1028B0005A67FEF78BFC054604E0FEF787FC401BD9
:1028C000022839D8736F9F07F7D4BAE71A6C01252D
:1028D00042F080521A641B6C03F080530193019BF9
:1028E00081E74A6850027FF520AF364A12689103AB
:1028F0007FF544AF6268002A7FF440AFCFE73149EB
:1029000020690A6822F0F80242EAC0020A601A0747
:102910007FF562AF80E71A681F4642F480721A6042
:10292000FEF754FC06463B68DA053FF561AFFEF75B
:102930004DFC801B6428F6D9032002B0BDE8F0816D
:10294000204B1A681E4622F480321A601A6822F45C
:1029500080221A60FEF73AFC054604E0FEF736FCDA
:10296000401B6428E8D833689B03F7D405E7154B70
:1029700041F288381A6F1F4622F001021A671A6F57
:1029800022F004021A67FEF721FC064604E0FEF777
:102990001DFC801B4045CFD83B6F9807F7D4002D16
:1029A0003FF452AF074A136C23F0805313644BE794
:1029B000044B1A681E4622F001021A60FEF706FC5C
:1029C000054608E00038024000700040FEF7FEFBBC
:1029D000401B0228B0D833689907F7D42368F9E67A
:1029E000464A136F43F001031367FEF7EFFB434FB3
:1029F00041F28838064604E0FEF7E8FB801B4045BC
:102A00009AD83B6F9B07F7D5002D3FF41DAFC9E760
:102A100001285A683FF436AF02F48003E1698B4223
:102A20007FF43DAF02F03F03216A8B427FF437AF62
:102A300047F6C073616A1340B3EB811F7FF42FAF79
:102A4000A36A02F440315B08013BB1EB034F7FF412
:102A500026AF02F07063E16AB3EB016F7FF41FAF42
:102A6000236B02F0E042B2EB037F14BF0120002091
:102A700008E742F480221A601A6842F480321A6031
:102A80006DE642F004021A671A6F42F001021A67FB
:102A9000ABE701207047FEF799FB064605E0FEF71D
:102AA00095FB801B02283FF647AF2B689901F6D4AF
:102AB000D4E90732616A1343104ED4E90A2043EA8D
:102AC0008113216B520843EA0063013A43EA017320
:102AD00043EA02436B602B6843F080732B60FEF780
:102AE00075FB044605E0FEF771FB001B02283FF66C
:102AF00023AF33689A01F6D5C3E600BF0038024021
:102B0000002800F0B480614A136803F00F038B4281
:102B10002DE9F04104460D460CD2136823F00F0353
:102B20000B431360136803F00F038B4202D00120A4
:102B3000BDE8F0812368980714D5590704D5544996
:102B40008A6842F4E0528A601A0704D550498A68BC
:102B500042F460428A604E49A0688A6822F0F0021E
:102B600002438A60DF0721D56268494B012A1B684E
:102B70007FD0022A78D09907D9D5454941F28838C3
:102B80008B680F4623F0030313438B60FEF71EFB95
:102B9000064604E0FEF71AFB801B40456CD8BB6874
:102BA000626803F00C03B3EB820FF3D1374A13686A
:102BB00003F00F03AB4209D9136823F00F032B4333
:102BC0001360136803F00F03AB42B0D123685A07B8
:102BD00006D52F49E0688A6822F4E05202438A60F1
:102BE0001B0731D42A498B6803F00C03042B39D01E
:102BF000082B18D14A684B6802F03F02496813F469
:102C000080033BD02348C1F388110023A1FB0001BE
:102C1000FDF77EFB1E4B5B68C3F3014301335B0092
:102C2000B0FBF3F300E01C4B194A1C4C92681C48A3
:102C3000C2F303121B490068A25CD3400B60FEF78D
:102C4000B1F80020BDE8F081114A2169936823F4AE
:102C5000604343EAC1030E4993608B6803F00C03A1
:102C6000042BC5D10B4BDFE7980186D45FE7012029
:102C700070479E0381D45AE7032059E70648C1F301
:102C80008811A1FB0001FDF743FBC3E7003C0240B4
:102C90000038024040787D010024F400F01901085A
:102CA0000800002000000020164908B58B6803F0DA
:102CB0000C03042B1BD0082B17D14A684B6802F079
:102CC0003F02496813F4800313D10F48C1F3881100
:102CD000A1FB0001FDF71CFB0A4B5B68C3F301433A
:102CE00001335B00B0FBF3F008BD074808BD07489F
:102CF00008BD0648C1F388110023A1FB0001FDF7C0
:102D000007FBE9E7003802400024F40040787D0129
:102D1000014B1868704700BF00000020044B054AB3
:102D20009B680549C3F382230868D35CD840704789
:102D300000380240001A010800000020044B054A38
:102D40009B680549C3F342330868D35CD840704799
:102D500000380240001A0108000000200E4B0F222C
:102D600002609A6802F0030242609A6802F0F00280
:102D700082609A6802F4E052C2609B68DB0810B47B
:102D800003F4E053054C036123685DF8044B03F042
:102D90000F030B60704700BF00380240003C024048
:102DA00003682DE9F04313F0010683B004460BD00D
:102DB000BB4A916821F400019160406B9168B0FAC0
:102DC00080F601437609916013F4002510D0B449D0
:102DD000E56BD1F88C20B5F5801F22F4401242EA51
:102DE0000502C1F88C2000F03D82B5FA85F56D0929
:102DF000DF0210D5AA48216CD0F88C20B1F5800FE5
:102E000022F4400242EA0102C0F88C2000F02D8238
:102E1000002908BF012513F0807F18BF01269806FE
:102E200000F1DA81D8060CD59D4AD2F88C1021F039
:102E30008071C2F88C10D2F88C10A06B0143C2F8DC
:102E40008C10590408D59649606ED1F8902022F470
:102E500040320243C1F890201A0408D59049A06E70
:102E6000D1F8902022F440220243C1F89020DF03E1
:102E700008D58B49E06ED1F8902022F4401202432D
:102E8000C1F89020980308D58549206FD1F890208B
:102E900022F440020243C1F89020590608D5804927
:102EA000606CD1F8902022F003020243C1F8902018
:102EB0001A0608D57A49A06CD1F8902022F00C02AD
:102EC0000243C1F89020DF0508D57549E06CD1F8C0
:102ED000902022F030020243C1F89020980508D5D6
:102EE0006F49206DD1F8902022F0C0020243C1F852
:102EF0009020590508D56A49606DD1F8902022F4D8
:102F000040720243C1F890201A0508D56449A06DAB
:102F1000D1F8902022F440620243C1F89020DF04EF
:102F200008D55F49E06DD1F8902022F44052024369
:102F3000C1F89020980408D55949206ED1F8902006
:102F400022F440420243C1F89020590208D5544966
:102F5000A06FD1F8902022F080620243C1F8902047
:102F60009A020CD54E49E06FD1F89020B0F1006F75
:102F700022F0006208BF01250243C1F8902013F03F
:102F8000080F18BF01255F0308D54549606FD1F8C8
:102F9000902022F040720243C1F89020180209D517
:102FA0003F49D4F88000D1F8902022F080520243AB
:102FB000C1F89020590109D53949D4F88400D1F8D5
:102FC000902022F000520243C1F890201A0109D546
:102FD0003349D4F88800D1F88C2022F000720243E3
:102FE000C1F88C20DF006CD4012E01D0980162D58D
:102FF0002B4B1A681F4622F080621A60FEF7E6F833
:10300000064605E0FEF7E2F8831B642B00F2E08041
:103010003B681901F6D42368DA0712D5626B82B9CE
:10302000D7F88420D7F8846002F44032606806F054
:103030007066A168324342EA801242EA0172C7F820
:1030400084201E0304D5E26BB2F5801F00F01E81C0
:10305000D80204D5226CB2F5800F00F01781D90197
:1030600011D50F4E6068D6F88420D6F8847002F02F
:103070007062216907F0E0473A4342EA801242EA6F
:103080000142C6F884209A0100F1F180044B1A68CD
:103090001F4642F080621A60FEF798F8064607E085
:1030A00000380240FEF792F8801B642800F29080FE
:1030B0003B681B01F6D5012D0ED0002003B0BDE802
:1030C000F0839349D4F88C00D1F88C2022F08062F0
:1030D0000243C1F88C2087E78D4B1A681E4622F008
:1030E00080521A60FEF772F8054604E0FEF76EF8AB
:1030F000401B64286CD833689F00F7D423681D03F5
:1031000040F1FD80E26B002A40F0F980804965695A
:10311000D1F88820D1F8886002F44032A06906F026
:10312000E046324342EA851242EA0062C1F8882052
:10313000D1F88C20A06A22F4F852013842EA002229
:10314000C1F88C20990215D5E26FB2F1006F11D150
:103150006F496569D1F88820D1F8886002F0706203
:10316000206A06F0E046324342EA851242EA004213
:10317000C1F888201A0719D5654A6569D2F8881000
:10318000D2F8883001F07061E06903F440330B43FA
:1031900043EA851343EA0073C2F88830D2F88C30D2
:1031A000E16A23F440330B43C2F88C30584B1A6861
:1031B0001D4642F080521A60FEF708F804462B685C
:1031C0009B003FF57AAFFEF701F8001B6428F6D9A3
:1031D000032003B0BDE8F0834D4A4E4B116C984676
:1031E00041F080511164126C02F080520192019AF8
:1031F0001A6842F480721A60FDF7E8FF074604E09F
:10320000FDF7E4FFC01B6428E2D8D8F80030D905E8
:10321000F6D53F4F236B3A6F03F4407112F44072BE
:1032200010D091420ED03A6F386F22F4407240F4C1
:1032300080303867386F20F4803038673A673A6FEB
:10324000D20748D4B1F5407F3CD031498A6822F496
:10325000F8128A602E4AC3F30B03116F0B431367F6
:103260002368DFE500250126C2E50126D3E52369B1
:1032700062681B04D4E9021043EA8213244A43EA39
:10328000006343EA0173C2F88430FFE6204E6068B1
:10329000D6F88420D6F8847002F44032E16807F052
:1032A000E0473A4342EA801242EA0162C6F88420CB
:1032B000D6F88C10626A21F01F01013A0A43C6F861
:1032C0008C20CCE6124814498268194022F4F81286
:1032D0000A438260BEE7FDF779FF41F288398046F4
:1032E00006E0FDF773FFA0EB080048453FF670AF1E
:1032F0003B6F9B07F5D5236B03F44071A2E7D8021F
:103300007FF520AF226C002A7FF41CAFFEE600BFE1
:103310000038024000700040FFFCFF0FF0B138B5EC
:1033200090F82C300D46044603F0FF028BB10223C7
:10333000214684F82C3051F8040B01F06DF8294631
:10334000D4E9000201F0A4F80123002084F82C3015
:1033500038BD80F82D20FDF715FBE8E70120704708
:1033600038B590F82C300446022BD8B20ED0022388
:103370000D46206884F82C3001F0D8F82B68002026
:10338000022B0CBF0523012384F82C3038BD00BF6D
:1033900090F82C30022B0CD0022310B504460068A4
:1033A00084F82C3001F0D8F80123002084F82C3068
:1033B00010BDD8B2704700BF38B370B590F8453033
:1033C00015460E46044603F0FF02CBB1214651F8E4
:1033D000080B00F085FF3146A268206800F0D2FF9C
:1033E0002946E36AD4E9010200F0F4FFA1682268EB
:1033F000002052F8213043F0010342F8213070BD23
:1034000080F84420FDF7B6FAE0E70120704700BFDE
:10341000002800F09480F8B590F83D30044603F0A1
:10342000FF02002B7BD0226802234749B2F1804F74
:1034300084F83D30A2EB01011368B1FA81F14FEA43
:10344000511150D000294ED1404D4148824218BF01
:10345000AA4248D03F4F05F50065D71BAA42B7FAEC
:1034600087F74FEA57175FD0002F5DD13A4F3B489F
:10347000824218BFBA420CBF0127002761D0384DE5
:10348000A0F59630824218BFAA4235D000F5806080
:10349000824256D000F58060824252D0A16923F06A
:1034A0008003E0680B4361681360D062916201237E
:1034B0000020536184F8483084F83E3084F83F306F
:1034C00084F8403084F8413084F8423084F8433046
:1034D00084F8443084F8453084F8463084F8473026
:1034E00084F83D30F8BD1B4F23F07003A568D71B4F
:1034F0002B43B7FA87F77F09206923F44073A56946
:103500000343E668606823F080032B431360D662B0
:10351000906209B9002FCAD063691363C7E780F8C6
:103520003C20FDF73DFD7EE70E4823F07003A568C3
:10353000824243EA0503DFD0002FDDD196E7012068
:1035400070470027D8E700BF00000140000400409A
:1035500000080040000401400040014000440140D8
:1035600000480140000C004090F83D30012B41D153
:103570000268254B2549B2F1804F18BF9A4230B4FA
:103580000CBF01230023224C0225A24208BF43F0B6
:10359000010380F83D501F4D04F580348A4208BF76
:1035A00043F001031C48D168AA4208BF43F001035D
:1035B00041F00101A24208BF43F00103D160824201
:1035C00008BF43F0010333B9A0F59430101AB0FAE4
:1035D00080F0400998B19168104B0B40062B0BD03E
:1035E000B3F5803F08D01368002043F00103136057
:1035F00030BC704701207047002030BC7047136812
:1036000043F001031360F3E70000014000080040AD
:1036100000040040000C0040004001400700010091
:1036200090F83C20012A73D0034602220068F0B4CF
:10363000012483F83D2083F83C404B4C85680A68A0
:103640002C40602A846065D031D8402A48D021D9E6
:10365000502A16D1066A056A4C6826F00A0625F03B
:103660000105CF6834430562826922F0F00242EA24
:10367000071282610462826822F0700242F05702EF
:10368000826000220121104683F83D1083F83C201F
:10369000F0BC7047202A02D01ED9302AF1D18168AF
:1036A00021F070010A4342F007028260E9E7702AC4
:1036B00049D0B2F5005FE4D1CC68D1E9015281680C
:1036C0002A4321F47F4142EA04220A43826082684D
:1036D00042F480428260D4E732F01001D1D1DEE7BB
:1036E000066A056A4C6826F00A0625F00105CF68CF
:1036F00034430562826922F0F00242EA07128261D5
:103700000462826822F0700242F047028260B8E7E9
:1037100002207047046A4D6824F01004CE680462E9
:103720008169026A21F4704122F0A00241EA063167
:1037300042EA051281610262826822F0700242F060
:10374000670282609DE7D1E90152CC682A43816813
:1037500042EA042221F47F410A438260826842F0F7
:10376000770282608DE700BF8800FEFF704700BFD0
:10377000704700BF704700BF704700BF03681A69F9
:10378000910710B5044602D5DA68920768D41A6921
:10379000520702D5DA6850074FD41A69110702D5CB
:1037A000DA68120737D41A69D00602D5DA68D1066A
:1037B0001ED41A69D20702D5DA68D00769D41A690B
:1037C000110602D5DA6812066BD41A69D00502D543
:1037D000DA6811066DD41A69520602D5DA68500605
:1037E0006FD41A69910602D5DA68920649D410BDE1
:1037F0006FF010010822204619612277DB6913F46B
:10380000407F6FD1FFF7B2FF2046FFF7B3FF0022E2
:1038100023682277CDE76FF0080104222046196162
:103820002277DB699B075AD1FFF7A0FF2046FFF7FD
:10383000A1FF002223682277B5E76FF0040102227E
:103840002046196122779B6913F4407F44D1FFF72A
:103850008DFF2046FFF78EFF0022236822779CE72A
:103860006FF002010122196102779B69990730D13B
:10387000FFF77CFF2046FFF77DFF002223682277B9
:1038800085E76FF0200220461A61BDE8104000F085
:1038900089B86FF0010220461A61FDF757FA2368D4
:1038A0008DE76FF0800220461A6100F07DF82368F2
:1038B0008BE76FF4807220461A6100F077F8236876
:1038C00089E76FF0400220461A61FFF755FF236831
:1038D00087E7FFF74DFFD0E7FFF74AFFBCE7FFF7A9
:1038E00047FFA6E7FFF744FF91E700BF90F83C30A1
:1038F000012B48D0024602201368F0B4234D82F811
:103900003D00AB4258689C6826D005F58065AB4207
:1039100022D01F4D20F070000E68AB4218BFB3F1EB
:10392000804F1C4F40EA06001B4E0CBF01250025AE
:103930005860BB4208BF45F00105B34214BF28469A
:1039400045F00100154DAB4208BF40F0010060B9E1
:103950001348834209D00DE0D1E9005620F47000ED
:10396000304320F0700028435860896824F08004B8
:103970000C439C6000230121184682F83D1082F818
:103980003C30F0BC70470220704700BF000001408F
:103990000004004000080040000C004000400140CE
:1039A00000180040704700BF704700BF704700BF5D
:1039B000C36F202B3BD1002937D0B2FA82F35B09C9
:1039C000002A32D030B490F87440012C4CD001253C
:1039D0000468036680F8745063681B0229D4836806
:1039E00000254165B3F5805FA0F85820A0F85A2063
:1039F000456629D013B3B3F1805F48D0A0F85C507E
:103A000022230021254AC0F88010C367A36843F031
:103A10000103A3600023426680F8743018462368CF
:103A200043F49073236030BC70470120704702203C
:103A30007047236843F080632360D0E70369ABB924
:103A4000FF23A0F85C30DBE703699BB92225C0F8AF
:103A5000803040F2FF11124AC567A368A0F85C10DD
:103A600043F00103A360D5E70220DCE77F23A0F841
:103A70005C30C5E72223C0F88050FF21074AC367A6
:103A8000A368A0F85C1043F00103A360C2E70369D8
:103A9000002BEBD03F23A0F85C30B1E7C53A00081B
:103AA000413B0008704700BF704700BF08B5806BFE
:103AB0000023A0F85A30A0F85230FFF7F5FF08BDF8
:103AC000704700BF38B5C36F0446222B05D002688B
:103AD000936943F00803936138BD036890F85C1064
:103AE0005B6A426D0B401370B0F85A30426D013B77
:103AF00001329BB24265A0F85A30B0F85A309BB2FE
:103B0000002BE9D102682025116821F49071116021
:103B1000916821F001019160C567016E436601293A
:103B200004D0FDF7CFFA0023236638BD1368B0F840
:103B3000581023F010031360FFF7C2FFF3E700BF34
:103B400038B5C36F04460268222B04D0936943F052
:103B50000803936138BD536AB0F85C50416D2B4047
:103B600021F8023BB0F85A304165013B9BB2A0F806
:103B70005A30B0F85A309BB2002BEBD11168202597
:103B800021F490711160916821F001019160C56785
:103B9000016E4366012904D0FDF794FA00232366E1
:103BA00038BD1368B0F8581023F010031360FFF706
:103BB00087FFF3E7704700BF026870B5D36940F62E
:103BC0000F05116804462B42966858D19D0602D510
:103BD0008D0600F1D680206E012815D0DD0202D5B9
:103BE000700200F1D3801E0605D4580602D54B069C
:103BF00000F1D78070BD0D06F7D5A36E002BF9D06C
:103C00002046BDE870401847DD06E7D5C806E5D573
:103C100010231362936813F0400300F0D580206FE7
:103C200003685B689BB2002BE4D0B4F8581099424B
:103C3000E0D9C569A4F85A30B5F5807F17D013686C
:103C40000021202523F480731360936823F001037F
:103C50009360936823F040039360E56721661368DF
:103C600023F010031360FDF741FEB4F85810B4F8C8
:103C70005A302046C91A89B2FFF722FF70BD674843
:103C800006F0010508402843A5D0DE0709D5C80580
:103C900007D501201062D4F8800040F00100C4F87C
:103CA00080009E0760D54DB102201062D4F88000DC
:103CB00040F00400C4F88000580759D418070BD509
:103CC00001F02000284307D008201062D4F88000BB
:103CD00040F00800C4F880001E050AD54D0108D543
:103CE0004FF400601062D4F8800040F02000C4F867
:103CF0008000D4F8800000283FF47CAF980601D5FE
:103D00008B065AD4D4F88050936805F0280503F048
:103D100040031D437BD0136823F4907313609368B2
:103D200023F001039360236E012B03D1136823F06A
:103D30001003136020210023E16723669168636606
:103D40004E062AD59368206F23F04003936020B37A
:103D5000334B0365FDF712FE00283FF44BAF206F95
:103D6000BDE87040036D18475E07A7D5002DA5D0AC
:103D700004201062D4F8800040F00200C4F88000F3
:103D80009CE7436E002B7FF43CAF33E74FF4801386
:103D900020461362FFF70EFF70BD2046FFF784FE3A
:103DA00070BD136820250021204623F040031360D6
:103DB000A567A166FFF776FE70BD636E002BA1D0EC
:103DC0002046984722689DE7B4F85A50B4F8581036
:103DD000B4F85A00491B80B289B200293FF40AAFF7
:103DE00000283FF407AF15682026204625F490757B
:103DF0001560956825F001059560E66723661568EE
:103E0000636625F010051560FFF75AFE70BD204669
:103E1000FFF74AFEC4F8805070BD00BF20010004C7
:103E2000AD3A0008436ADA0710B406D50168846A1F
:103E30004A6822F4003222434A609C0706D5016892
:103E4000C46A4A6822F4803222434A60590706D580
:103E50000168046B4A6822F4802222434A601A07F0
:103E600006D50168446B4A6822F4004222434A6046
:103E7000DC0606D50168846B8A6822F480522243EE
:103E80008A60990606D50168C46B8A6822F40052DC
:103E900022438A605A060AD50168046C4A68B4F560
:103EA000801F22F4801242EA04024A600BD01B06F3
:103EB00006D50268816C536823F400230B435360DA
:103EC0005DF8044B70474A68446C22F4C0022243F8
:103ED0004A60ECE738B500230446C0F88030FDF7AF
:103EE00075F9236805461A6811070BD41A6852073A
:103EF0002DD4002320221846A26784F87430E2678C
:103F0000236638BDDA699202F0D4FDF75FF9401BF1
:103F10002368B0F1007F2BD21A685007F2D5DA6916
:103F20001105EFD54FF4006120220025032019620E
:103F3000196821F4D0711960996821F00101996024
:103F4000A26784F87450E267C4F8802038BDDB694A
:103F50005802CED4FDF73AF9401B2368B0F1007F38
:103F600006D21A685107F2D5DA691205EFD5D9E7FA
:103F70001A6820210025032022F4D0721A609A6862
:103F800022F001029A60A16784F87450E16738BD9D
:103F9000002800F02C81836F70B50446002B45D0BB
:103FA000236824212069A167A26819680243606917
:103FB00021F00101BC4D0243E06919601968024318
:103FC000E6680D40A1692A43256A1A6041EA0502A4
:103FD0005968B64D21F44051AB4241EA060159609F
:103FE000996821F4306142EA01029A6023D0B04A14
:103FF00093423AD0AF4A934200F0E780AE4A9342F0
:1040000000F09780AD4A93427DD0AD4A934200F0D4
:104010001781AC4A934200F02A81AB4A934200F0E8
:10402000FE8000230120C4E9193370BD80F874308C
:10403000FCF7FAFFB4E7A54BD3F8903003F0030385
:10404000013B022B40F28880B0F5004F00F0E18088
:10405000FEF774FE88BB0023C4E91933636A002BA2
:104060003FD02046FFF7DEFE3BE0984B984AD3F85E
:10407000903003F00C03D35CB0F5004F6FD0082BE9
:10408000CFD801A252F823F02D410008514000087A
:104090001D41000823400008534100082340000848
:1040A0002340000823400008B7400008302BB8D157
:1040B000B0F5004F6CD04FF4004063684FF6EF72DC
:1040C00000EB5300B0FBF3F080B2A0F11003934279
:1040D000A7D822680023D060C4E91933636A002B93
:1040E000BFD1236820465A6822F490425A609A68E9
:1040F00022F02A029A601A6842F00102BDE870407C
:104100001A60FFF7E7BE714BD3F8903003F44073A9
:10411000B3F5007F04D1B0F5004F54D06D48CCE723
:104120006BD8002B65D1B0F5004F75D0FEF7F6FDCA
:1041300090E7664BD3F8903003F0C003802BEAD0B1
:1041400051D8002BEFD0402B7FF46BAFB0F5004F70
:1041500058D0FEF7A9FD7DE75F4AD35C8CE7082BBA
:104160003FF65FAF01A252F823F000BF19420008EA
:1041700013420008C7410008234000080542000818
:104180002340000823400008234000089141000814
:104190004FF4803063684FF6EF7200EB5300B0FBD2
:1041A000F3F083B2A3F1100191423FF63AAF20F051
:1041B0000F00C3F342032168002280B21843C86095
:1041C000C4E919228AE74548E4E7404BD3F8903028
:1041D00003F03003202B9ED03FF668AF002BA2D017
:1041E000102BB3D01DE7C02B3FF462AF19E70120BD
:1041F0007047B3F5807FA9D013E7B3F5407F3FF454
:1042000057AF0EE7FEF750FD00283FF424AF400003
:10421000C0E7FEF793FDF7E7FEF780FDF4E72B4BD1
:10422000D3F8903003F44043B3F5004F3FF473AF3D
:1042300034D8002B3FF477AFB3F5804F86D0F0E64B
:10424000224BD3F8903003F44063B3F5006F3FF492
:1042500062AF07D8002B3FF4F7AEB3F5806F3FF4A1
:1042600075AFDEE6B3F5406F3FF422AFD9E6174BEA
:10427000D3F8903003F44053B3F5005F3FF44BAFF5
:1042800007D8002B3FF44FAFB3F5805F3FF45EAF2C
:10429000C7E6B3F5405F3FF40BAFC2E6B3F5404F5E
:1042A0003FF406AFBDE600BFF369FFEF0010014029
:1042B0000044004000480040004C004000500040D6
:1042C0000014014000780040007C004000380240AB
:1042D0000C1A01080024F400081A01080048E8013B
:1042E000F0B4D1E90125CB6882B02A434F69D1F8F7
:1042F0002CC0082D43EA0203214CD1E90662019249
:104300000A6943EA0203019A43EA07034F6A43EA50
:1043100006038E6A42EA03020B6A42EA03030A6B4F
:1043200043EA07038F6B43EA06030E68496B43EACF
:104330000C0350F826C043EA02030CEA040443EAE3
:10434000070343EA010343EA040308BF43F04003C1
:10435000B2F5801F40F8263007D016B10368194324
:104360000160002002B0F0BC7047002EF9D0036855
:1043700043F480130360036819430160F1E700BF51
:104380008004C0FF70B40B6800EB82028C694D683A
:1043900023438C68CE6843EA051343EA0423D1E93A
:1043A000044543EA0643611E023D546843EA015353
:1043B00004F0404443EA0563234353600368DB028F
:1043C00005D54368090523F47003194341600020B3
:1043D00070BC7047B3F5804F05D06FF0704340F864
:1043E00022300020704770B40B688D694C682B43F5
:1043F000D1E9026543EA0413064950F8224043EA32
:104400000623214043EA05430B4370BC40F82230A9
:10441000002070470000F0CF0B68012BF0B418D0DB
:1044200002681A4B4C6813408E69D1E90225234378
:104430000C6913434A692B43CD6923431343334328
:10444000D1E908422B4323431343F0BC036000200F
:10445000704707680D4B446827F4F8474A682340C3
:104460000C69D1E902651343CA6933433A430E6AC2
:104470002B434D6932434E6A2343896932432B43B0
:1044800002600B43F0BC4360002070470080FFFFD8
:10449000012AF0B421D04C6882680D68631E02F0D6
:1044A00070428C686E1E42EA0313651ECC6833436B
:1044B0000A69661E4C6943EA0523551E8A69611E16
:1044C00043EA0633013A43EA054343EA015343EA28
:1044D0000263F0BC83600020704785684A68C36847
:1044E0000C68561E03F070430F4A43EA06132A4035
:1044F000661ECD688C686F1E33430D69661E4C695D
:1045000042EA07328969013D43EA0623013C013949
:1045100043EA054342EA045243EA01638260C3600E
:104520000020F0BC704700BFFF0F0FFF70B40246C1
:10453000CE68084C0020D1E9003589682B43156905
:10454000013943EA46232C40234343EA411370BC1C
:10455000136170470000C0FF034600205A6942EA19
:1045600041015961704700BF84B070B4099E04AD29
:104570000446012E85E80E0030D1826B2C4B22F4CC
:104580008032109982630129C26803EA0203C36082
:10459000C36823F44013C3603CD0264B01E0013BC9
:1045A0003DD02269002AFADA2269224B42F0010248
:1045B000226101E0013B32D0206910F00100F9D105
:1045C000079B012B07D1A36843F00603A360A368F0
:1045D00043F02003A36070BC04B07047C268154B61
:1045E00042F04002C26001E0013B1AD02269002A79
:1045F000FADA22690F4B42F00102226101E0013B2D
:104600000FD0206910F00100F9D1A36B43F480337F
:10461000A363D5E7C36843F48013C360BDE70320F9
:10462000CEE7A36B032043F48033A363C8E700BF46
:10463000BFFFBDFF400D0300022A034610B40CD09B
:104640004FF41054D968002021F47051D960DA6811
:1046500022435DF8044BDA607047234A23480A443A
:1046600082422CD9224A23480A4482422AD9224A29
:1046700022480A44824228D9214A22480A448242D6
:1046800026D3214A21480A44824224D9204A21487B
:104690000A44824222D3204A20480A448242CFD38D
:1046A0001F4A20480A4482421BD31F4A1F4C0A4417
:1046B000A24234BF4FF4E0544FF4C054C2E74FF469
:1046C0007054BFE74FF46054BCE74FF45054B9E75F
:1046D0004FF44054B6E74FF43054B3E74FF420544E
:1046E000B0E74FF40054ADE7405327FFFF340C0010
:1046F000401E1BFF3F420F0000DC0BFF7F4F1200EC
:10470000808CF9FE20D6130060B6E5FE5FE316004C
:1047100000D3CEFE40771B00C05BB3FEC0912100EA
:1047200000CA91FE20753800E05459FEE09C41001B
:10473000034600209A6842F001029A60704700BF69
:10474000034600209A6822F001029A60704700BF79
:1047500008B5C368012923F0C043C3600BD041B939
:10476000C36843F08043C3603220FCF735FD00206E
:1047700008BD012008BDC36843F00053C360F3E7E0
:1047800084B02DE9F043129D0026044608AFC0F81E
:104790000461C0F80861C4F80C61C4F81061C4F881
:1047A0001461C4F81861C4F81C61C4F82061C4F82D
:1047B0002461C4F82861C4F82C61C4F83061C4F8DD
:1047C0003461C4F83861C4F83C6187E80E000A9887
:1047D0000D9B002D55D1D4F8042804F5006642F055
:1047E00002027260A26B22F40012A263226842F0FD
:1047F00040022260226842F0800222600022012BE7
:10480000C4F8002E3268326000F08D80032B3368CC
:104810003ED043F0030333604FF48462484B22617F
:1048200002E0013B00F08780206910F02000F8D101
:104830001022434B226101E0013B7ED02269D20667
:10484000FAD4002232617261F26151B304F510634F
:104850004FF090484FF0006994464FF67F3E09E0D4
:10486000C3F800C00132C3F810C0C3F808E0203319
:104870008A4239D01F68002FF2DA7AB1C3F800807B
:10488000F0E7A26B04F5006642F40012A263B5E7FC
:104890000028C0D043F001033360BDE7C3F80090A7
:1048A000E0E7336900276FF080410B9A23F48073AF
:1048B0003361A76161611AB9A36943F01003A36171
:1048C000A169204B0E9A0B43A3611AB1A36943F06F
:1048D0000803A361012D03D1A2691B4B1343A361FC
:1048E000BDE8F04304B07047002204F530634FF098
:1048F00090484FF0006994464FF67F3E09E0C3F8B8
:1049000000C00132C3F810C0C3F808E020338A4267
:10491000C7D01F68002FF2DA12B1C3F80080F0E7A9
:10492000C3F80090EDE7336800283FF474AF43F01C
:104930000103336070E701207AE7012081E700BFBF
:10494000400D030000383C80040000408901074A04
:1049500041F02001016101E0013A05D0036913F043
:104960002003F9D11846704703207047400D03001B
:10497000D0F8083813F0060004D013F0020F14BF6B
:1049800002200F20704700BF70B44B780A78012BCB
:104990001FD000F5006402F00F054FF4803300EBE8
:1049A0004210E269AB401343E361D0F8003B1B04C3
:1049B0000CD48B68D0F8004BC3F30A03C978154AAE
:1049C000234343EA81431A43C0F8002B002070BC04
:1049D000704702F00F04D0F81C6800F5006500EB8A
:1049E0004210A3403343EB61D0F800391C04EDD4EE
:1049F0008B68D0F80059C3F30A03CC7805492B43E0
:104A000043EA844343EA8252114370BCC0F8001960
:104A1000002070470080001030B44A780B78012ADB
:104A200000EB43152BD0D5F8002B002A1ADB4FF4EE
:104A3000803203F00F03D0F83C4802FA03F3254913
:104A400024EA0304C0F83C48D0F81C2822EA0303F7
:104A5000C0F81C380020D5F8003B1940C5F8001BF1
:104A600030BC7047D5F8002B42F00062C5F8002B2F
:104A7000D5F8002B42F08042C5F8002BD7E7D5F8D7
:104A80000029002A0BDAD5F8002942F00062C5F8A7
:104A90000029D5F8002942F08042C5F800290122FA
:104AA00003F00F03D0F83C4802FA03F30A4924EA62
:104AB0000304C0F83C48D0F81C2822EA0303C0F8DD
:104AC0001C380020D5F800391940C5F8001930BC51
:104AD000704700BF0078F3EF007833EC2DE9F04722
:104AE0004D780C78012D54D000EB4414824F4D6961
:104AF000D4F810CB04F53063804E0CEA07071F6131
:104B00001F693E401E6195B38E68012A7C4F354473
:104B1000D3F810C005F1FF35B5FBF6F51FFA85FE99
:104B200007EAC54506FB0EF645EA0C05C6F3120674
:104B30001D611D6946EA05061E6125D0CB78012B53
:104B40000CD1D0F8083813F4807FD4F8003B0CBFA8
:104B500043F0005343F08053C4F8003BD4F8003BCB
:104B600043F00443C4F8003B0020BDE8F0878D68A3
:104B7000012A1E69C5F3120545EA06051D611D6976
:104B800045F400251D61D9D1CA68002AD6D05A61E2
:104B9000D4E74E69002E40D000EB441ED1F80880C7
:104BA000DFF854A1C6F31207DEF8109906EB080CE3
:104BB0000EF5106309EA0A0A0CF1FF3CDFF83C919C
:104BC000C3F810A0D3F810A0BCFBF8F80AEA090952
:104BD000DFF82CC1C3F810900CEAC84CD3F8108051
:104BE0004CEA080CC3F810C0D3F810C047EA0C0711
:104BF0001F61CF78012F4ED0012A68D0DEF800392E
:104C000004F00F0443F00443A540CEF80039D0F877
:104C100034482543C0F83458A6E700EB441C374F0E
:104C2000354D012ADCF810E90CF510630EEA070790
:104C30001F611F6947F400271F611F6905EA070507
:104C40001D61CF7838D0DCF80059012F45F00445BC
:104C5000CCF8005988D1D0F8085815F4807F1D6829
:104C60000CBF45F0005545F080551D60002A7FF4CB
:104C70007BAFB6B20336B6083FF476AFCB6800EB35
:104C8000043003EB860100F5805053F8042B8B426F
:104C90000260FAD168E71D69012A25F0C0451D614F
:104CA0001D6945F000551D6116D0DEF8005945F02C
:104CB0000445CEF80059CEE70A695AB9012F0ED043
:104CC0001A68002042F004421A60BDE8F0870A69C1
:104CD000002AF5D05A61F1E70A69002AFAD1D0F822
:104CE000082812F4807F1A680CBF42F0005242F08C
:104CF00080521A60E4E700BF0000F8FFFFFF07E002
:104D00000000F81F2DE9F0414C780B78012C2AD0D7
:104D100000EB43104D4D4E69D0F8107B00F5306329
:104D20004B4C3D401D611D692C401C618C6806B1D7
:104D30004C611D69C4F31204012A45F400251D616C
:104D40001D6944EA05041C6108D0D0F8003B43F01B
:104D50000443C0F8003B0020BDE8F081CA68002A87
:104D6000F3D05A61F1E74D69ADB300EB431E374F05
:104D7000D1F808C0DEF810890EF51064344E654590
:104D800008EA07072761276906EA070626612669F8
:104D90004AD946F40026C1F814C0CCF31205012A02
:104DA0002661266945EA0605256133D0DEF800292B
:104DB00042F00442CEF80029BCF1000FCBD003F042
:104DC0000F010123D0F834288B401343C0F8343846
:104DD0000020BDE8F08100EB43101D4EA5F5002535
:104DE000012AD0F8103900F5106406EA030626619E
:104DF000266946F400262661236905EA0305256134
:104E000008D0D0F8003943F00443C0F8003900203E
:104E1000BDE8F0810B6903B163612368002043F0B2
:104E200004432360BDE8F08146F40026C5F3120573
:104E3000012A2661266945EA06052561EAD0DEF8E1
:104E4000002942F00442CEF80029B8E70000F8FF3C
:104E5000FFFF07E010B49DF8044064B903339B08DA
:104E600009D0013201EB830300EB023051F8042B2F
:104E70008B420260FAD100205DF8044B704700BFFE
:104E8000033292080CD010B400F5805401EB82007C
:104E9000236841F8043B8842FAD15DF8044B70471F
:104EA000084670474A780B78012A00EB43100CD073
:104EB000D0F8002B0BB1002A14DAD0F8003B43F4F1
:104EC0000013C0F8003B00207047D0F80029002AEA
:104ED00000DB73B9D0F8003943F40013C0F800398F
:104EE00000207047D0F8003B23F08043C0F8003B1F
:104EF000E3E7D0F8003923F08043C0F80039D0F858
:104F0000003943F40013C0F80039E9E74A780B7818
:104F1000012A00EB431013D0D0F8003B23F4001318
:104F2000C0F8003BCB78023B012B01D90020704731
:104F3000D0F8003B43F08053C0F8003B002070479E
:104F4000D0F8003923F40013C0F80039CB78023BC5
:104F5000012BEBD8D0F8003943F08053C0F800396A
:104F600000207047034609010020D3F8002801F40F
:104F7000FE6122F4FE62C3F80028D3F80028114332
:104F8000C3F80018704700BF03460020D3F8002E76
:104F900003F5006122F00302C3F8002ED3F80438B1
:104FA00023F002034B60704703460020D3F8002E25
:104FB00003F5006122F00302C3F8002ED3F8043891
:104FC00043F002034B6070474269806910407047AC
:104FD000D0F8183800F50060C0691840000C704720
:104FE000D0F8183800F50060C069184080B27047EA
:104FF00000EB411100F50060D1F8082B406910402A
:10500000704700BF30B4D0F8104801F00F05D0F859
:10501000343800EB4111EB40D1F80809DB01DBB279
:10502000234330BC18407047406900F001007047CE
:105030000346094A002003F5006110B4D3F8004983
:1050400022405DF8044BC3F80029D3F8043843F438
:1050500080734B60704700BF00F8FFFF144B10B423
:10506000046C9C421AD800F53060002301290361CA
:10507000036943F400230361036943F018030361E8
:10508000036943F0C043036104D14261036843F004
:105090008023036000205DF8044B7047D0F8003B8C
:1050A00000F53060002BE0DA00205DF8044B70471B
:1050B0000A30544F10B5044682B000F067FA230A54
:1050C0005B00603B03F0FE0000F004FB00F0AEFA72
:1050D000E0B200F0FFFA00F0A9FA00F057FAA120C0
:1050E00000F0F8FA00F0A2FA002000F02BFB01908B
:1050F00000F074FA019802B010BD00BF38B5044644
:105100000D4600F043FA230A5B00603B03F0FE000B
:1051100000F0E0FA00F08AFAE0B200F0DBFA00F00A
:1051200085FA284600F0D6FA00F080FA00F056FA28
:105130000A20BDE83840FCF74FB800BF7AB32DE92C
:10514000F041561E00F1010804460F4658FA86F653
:105150000025B6B200F01AFA230A5B00603B03F0A8
:10516000FE0000F0B7FA00F061FAE0B200F0B2FA27
:1051700000F05CFA27FA05F01FFA88F40835C0B28F
:1051800000F0A8FA04F1010800F050FA00F026FA45
:105190000A20FCF721F8A642DCD1BDE8F081704777
:1051A0002DE9F04191B3431E4F1E00255C18FFB25C
:1051B000A4B204F1FF38A8EB0707BFB200F0E6F98C
:1051C000200A2D024000603800F0FE0000F082FA54
:1051D00000F02CFAE0B200F07DFA1FFA88F400F03B
:1051E00025FA00F0D3F9A12000F074FA04F1FF3899
:1051F00000F01CFA002000F0A5FA064600F0EEF9D7
:10520000A7423544DAD12846BDE8F0810D4628464C
:10521000BDE8F08110B500F0B9F9A02000F05AFA0D
:1052200000F004FAFF2000F055FA00F0FFF900F05A
:10523000ADF9A12000F04EFA00F0F8F9002000F0DE
:1052400081FA044600F0CAF9552C33D000F09EF9DB
:10525000A02000F03FFA00F0E9F9FF2000F03AFA50
:1052600000F0E4F9552000F035FA00F0DFF900F025
:10527000B5F90A20FBF7B0FF00F088F9A02000F094
:1052800029FA00F0D3F9FF2000F024FA00F0CEF95B
:1052900000F07CF9A12000F01DFA00F0C7F9002011
:1052A00000F050FA044600F099F9B4F1550018BF27
:1052B000012010BD002010BDD0B50D4C84B00722D8
:1052C00000230526012769462046CDE90223CDE9C2
:1052D0000067FCF73DF92046FCF742F80A2120461A
:1052E000FCF7D8F82046FCF72FF980B204B0D0BD07
:1052F00078450020000000002DE9F04F8B4685B076
:1053000000293FD000244FF005084FF0010907267F
:105310000027A246204D694628460134CDE9008980
:10532000CDE90267FCF714F92846FCF719F80A21C1
:105330002846E4B2FCF7AEF82846FCF705F9034628
:1053400005201AFA83FA08F06DFCA345E3D1BAFBF5
:10535000FBFA07EE90AA1FFA8AFAB8EE677A9FED79
:105360000C6BB7EEC77A27EE067BB7EEC77BB7EEBE
:10537000C77A53EC172B09480AF094FA504605B047
:10538000BDE8F08F002200238A46F4E7AFF30080E7
:105390006666666666664A3F784500201C1A010804
:1053A00010B500F0F3F83C2000F094F900F03EF95D
:1053B00040B900F08FF900F039F9042000F08AF9C3
:1053C00000F034F900F00AF9322008F02BFC00F06C
:1053D000DDF83C2000F07EF900F028F940B900F03B
:1053E00079F900F023F9032000F074F900F01EF9B8
:1053F00000F0F4F800F0CAF83C2000F06BF900F07F
:1054000015F9002000F066F900F010F900F0BEF880
:105410003D2000F05FF900F009F9002000F092F95A
:10542000044600F0DBF8E01E18BF012010BD00BFED
:105430002DE9F04383B081460F4690466E460A241C
:1054400000F0A4F83C2000F045F900F0EFF8204609
:10545000013400F03FF900F0E9F8E4B200F096F80A
:105460003D2000F037F900F0E1F8002000F06AF983
:10547000054600F0B3F8102C06F8015BE0D19DF969
:1054800000209DF80030002A24DB03F003039DF880
:10549000012043EA82039DF803109DF80220A9F839
:1054A000003042EA01229DF80430A8F800205A0694
:1054B0000BD49DF8052003F00F03120102F47C7257
:1054C00013433B8003B0BDE8F08300233B8003B06F
:1054D000BDE8F0830023DEE738B505460C4600F052
:1054E00055F83C2000F0F6F800F0A0F878B928460E
:1054F00000F0F0F800F09AF8204600F0EBF800F029
:1055000095F8044618B900F069F8204638BD012422
:1055100000F064F8204638BD10B5044682B000F0B3
:1055200035F83C2000F0D6F800F080F8204600F076
:10553000D1F800F07BF800F029F83D2000F0CAF81F
:1055400000F074F8002000F0FDF8019000F046F83B
:10555000019802B010BD00BF07EE100A00220A48F1
:10556000B8EE477B11469FED066B27EE067BFCEEFF
:10557000C77B17EE903AFCF77BB900BFAFF3008012
:10558000DC13C03D01DCF33FC045002010B5124CD8
:10559000012220212368204623F4406323602368EE
:1055A00043F480632360FCF723FB20460122102193
:1055B000FCF71EFB042008F01BFB204600222021E4
:1055C000FCF716FB042008F013FB204600221021F4
:1055D000BDE81040FCF70CBB001C024010B5124C9B
:1055E000002210212368204623F4406323602368AF
:1055F00043F480632360FCF7FBFA2046002220215D
:10560000FCF7F6FA042008F0F3FA204601221021F4
:10561000FCF7EEFA042008F0EBFA204601222021E4
:10562000BDE81040FCF7E4BA001C024070B5284CFD
:1056300001222021FB2523682046264623F44063CF
:10564000236023682360FCF7D3FA012008F0D0FA26
:10565000204601221021FCF7CBFA012008F0C8FAFD
:1056600002E012F0FF050ED020211948FCF7BAFA2B
:105670006A1E04460028F4D1024610211448FCF7A3
:10568000B7FA204670BD33682A461021104823F42B
:10569000406301243360336843F480633360FCF774
:1056A000A7FA2A4620210A48FCF7A2FA042008F0AB
:1056B0009FFA224610210648FCF79AFA042008F0C7
:1056C00097FA224620210248FCF792FA204670BD44
:1056D000001C0240F8B51A4B0446002210211D6838
:1056E0001E4625F440600825186018461F6847F4D8
:1056F00080671F60FCF77CFA23064FF000024FF032
:105700002001304648BF0122013DFCF771FA02201A
:1057100008F06EFA012210213046FCF769FA0220E7
:1057200008F066FA002210213046FCF761FA0220E8
:10573000640008F05DFA15F0FF05E4B2DCD1F8BDB5
:10574000001C0240F8B53A4B0825002407461A68A9
:105750001E4622F440621A601A681A600022102164
:1057600030466400FCF744FA022008F041FA0122B6
:1057700010213046FCF73CFA20213046E4B2FCF719
:1057800031FA03460120221803B1D4B208F030FAEE
:105790006A1E12F0FF05E1D127BB254D3A461021C4
:1057A0002846FCF725FA2B682846012223F440639B
:1057B00020212B602B6843F480632B60FCF718FAE0
:1057C000022008F015FA284601221021FCF710FAF1
:1057D000022008F00DFA28463A461021FCF708FA94
:1057E0002046F8BD124E2A4610213046FCF700FA3A
:1057F00033682A46304623F44063202133603368FF
:1058000043F480633360FCF7F3F9022008F0F0F909
:10581000304601221021FCF7EBF9022008F0E8F9EC
:1058200030462A461021FCF7E3F92046F8BD00BFB8
:10583000001C0240F8B52C4C074615460E4623685E
:1058400020460122202123F440632360236843F48F
:1058500080632360FCF7CCF9204601221021FCF77D
:10586000C7F9042008F0C4F9204600222021FCF7E3
:10587000BFF9042008F0BCF9002210212046FCF7F3
:10588000B7F93846FFF726FFFFF7D0FE3046FFF79F
:1058900021FFFFF7CBFE2846FFF71CFFFFF7C6FEF0
:1058A00023682046002223F44063102123602368EC
:1058B00043F480632360FCF79BF9204600222021FB
:1058C000FCF796F9042008F093F9204601221021F4
:1058D000FCF78EF9042008F08BF9204601222021E4
:1058E000BDE8F840FCF784B9001C02402DE9F04106
:1058F000734C06460122884623682046202127460D
:1059000023F4406308252360236843F48063236005
:10591000FCF76EF9012210212046FCF769F90420FA
:1059200008F066F9002220212046FCF761F90420E6
:1059300008F05EF9002210212046FCF759F93046A4
:10594000FFF7C8FEFFF772FE4046FFF7C3FEFFF702
:105950006DFE23682046012223F44063202123604A
:10596000236843F480632360FCF742F9012210218D
:105970002046FCF73DF9042008F03AF900222021E6
:105980002046FCF735F9042008F032F900221021F6
:105990002046FCF72DF9701C0026C0B2FFF79AFED6
:1059A000FFF744FE236823F44063236023682360E9
:1059B0000022102138467600FCF71AF9022008F080
:1059C00017F9012210213846FCF712F92021384638
:1059D000F6B2FCF707F902460120331802B1DEB235
:1059E000013D08F005F915F0FF05E1D1344C2A46D8
:1059F00010212046FCF7FCF823682046012223F4FE
:105A0000406320212360236843F480632360FCF714
:105A1000EFF8022008F0ECF8204601221021FCF7F4
:105A2000E7F8022008F0E4F82A4620461021FCF7A7
:105A3000DFF82A4620461021FCF7DAF823682046D2
:105A4000012223F4406320212360236843F4806310
:105A50002360FCF7CDF8022008F0CAF820460122A6
:105A60001021FCF7C5F8022008F0C2F82A462046AB
:105A70001021FCF7BDF8236820462A4623F4406332
:105A800010212360236843F480632360FCF7B0F89F
:105A90002A4620462021FCF7ABF8042008F0A8F89D
:105AA000204601221021FCF7A3F8042008F0A0F8FA
:105AB000204601222021FCF79BF83046BDE8F0810A
:105AC000001C0240012838B52F4C09D0237843B977
:105AD00008212E48FCF786F801283AD0002038BD6E
